{
    "_format": "hh-sol-artifact-1",
    "contractName": "MyEthSpace",
    "sourceName": "contracts/MyEthSpace.sol",
    "abi": [
        {
            "inputs": [],
            "stateMutability": "payable",
            "type": "constructor"
        },
        {
            "inputs": [],
            "name": "getTotalSocialActions",
            "outputs": [
                {
                    "internalType": "uint256",
                    "name": "totalWaves",
                    "type": "uint256"
                },
                {
                    "internalType": "uint256",
                    "name": "totalThumbs",
                    "type": "uint256"
                },
                {
                    "internalType": "uint256",
                    "name": "totalLikes",
                    "type": "uint256"
                }
            ],
            "stateMutability": "view",
            "type": "function"
        },
        {
            "inputs": [],
            "name": "like",
            "outputs": [],
            "stateMutability": "nonpayable",
            "type": "function"
        },
        {
            "inputs": [],
            "name": "thumbsup",
            "outputs": [],
            "stateMutability": "nonpayable",
            "type": "function"
        },
        {
            "inputs": [],
            "name": "wave",
            "outputs": [],
            "stateMutability": "nonpayable",
            "type": "function"
        }
    ],
    "bytecode": "0x608060405261004c6040518060400160405280600c81526020017f48656c6c6f20776f726c6421000000000000000000000000000000000000000081525061005160201b6101fb1760201c565b6101d4565b6100ed816040516024016100659190610152565b6040516020818303038152906040527f41304fac000000000000000000000000000000000000000000000000000000007bffffffffffffffffffffffffffffffffffffffffffffffffffffffff19166020820180517bffffffffffffffffffffffffffffffffffffffffffffffffffffffff83818316178352505050506100f060201b60201c565b50565b60008151905060006a636f6e736f6c652e6c6f679050602083016000808483855afa5050505050565b600061012482610174565b61012e818561017f565b935061013e818560208601610190565b610147816101c3565b840191505092915050565b6000602082019050818103600083015261016c8184610119565b905092915050565b600081519050919050565b600082825260208201905092915050565b60005b838110156101ae578082015181840152602081019050610193565b838111156101bd576000848401525b50505050565b6000601f19601f8301169050919050565b6106ab806101e36000396000f3fe608060405234801561001057600080fd5b506004361061004c5760003560e01c806326fe768a1461005157806329c4373a1461005b5780636fe15b441461007b578063a523b88a14610085575b600080fd5b61005961008f565b005b6100636100ed565b604051610072939291906104f0565b60405180910390f35b610083610140565b005b61008d61019d565b005b6001600060010160008282546100a59190610543565b925050819055506100eb6040518060400160405280600e81526020017f257320686173207468756d62656400000000000000000000000000000000000081525033610294565b565b60008060006101246040518060600160405280602d8152602001610649602d91396000800154600060010154600060020154610330565b6000800154600060010154600060020154925092509250909192565b60016000800160008282546101559190610543565b9250508190555061019b6040518060400160405280600b81526020017f257320686173207761766500000000000000000000000000000000000000000081525033610294565b565b6001600060020160008282546101b39190610543565b925050819055506101f96040518060400160405280600c81526020017f257320686173206c696b6564000000000000000000000000000000000000000081525033610294565b565b6102918160405160240161020f9190610452565b6040516020818303038152906040527f41304fac000000000000000000000000000000000000000000000000000000007bffffffffffffffffffffffffffffffffffffffffffffffffffffffff19166020820180517bffffffffffffffffffffffffffffffffffffffffffffffffffffffff83818316178352505050506103d2565b50565b61032c82826040516024016102aa929190610474565b6040516020818303038152906040527f319af333000000000000000000000000000000000000000000000000000000007bffffffffffffffffffffffffffffffffffffffffffffffffffffffff19166020820180517bffffffffffffffffffffffffffffffffffffffffffffffffffffffff83818316178352505050506103d2565b5050565b6103cc8484848460405160240161034a94939291906104a4565b6040516020818303038152906040527f08ee5666000000000000000000000000000000000000000000000000000000007bffffffffffffffffffffffffffffffffffffffffffffffffffffffff19166020820180517bffffffffffffffffffffffffffffffffffffffffffffffffffffffff83818316178352505050506103d2565b50505050565b60008151905060006a636f6e736f6c652e6c6f679050602083016000808483855afa5050505050565b61040481610599565b82525050565b600061041582610527565b61041f8185610532565b935061042f8185602086016105d5565b61043881610637565b840191505092915050565b61044c816105cb565b82525050565b6000602082019050818103600083015261046c818461040a565b905092915050565b6000604082019050818103600083015261048e818561040a565b905061049d60208301846103fb565b9392505050565b600060808201905081810360008301526104be818761040a565b90506104cd6020830186610443565b6104da6040830185610443565b6104e76060830184610443565b95945050505050565b60006060820190506105056000830186610443565b6105126020830185610443565b61051f6040830184610443565b949350505050565b600081519050919050565b600082825260208201905092915050565b600061054e826105cb565b9150610559836105cb565b9250827fffffffffffffffffffffffffffffffffffffffffffffffffffffffffffffffff0382111561058e5761058d610608565b5b828201905092915050565b60006105a4826105ab565b9050919050565b600073ffffffffffffffffffffffffffffffffffffffff82169050919050565b6000819050919050565b60005b838110156105f35780820151818401526020810190506105d8565b83811115610602576000848401525b50505050565b7f4e487b7100000000000000000000000000000000000000000000000000000000600052601160045260246000fd5b6000601f19601f830116905091905056fe576520686176652025642077617665732c202564207468756d627320757020616e64202564206c696b65732021a26469706673582212202334db5e452254d45ed7621c5373ed2c56fb46216d75c7eb851aaf2d235c942564736f6c63430008000033",
    "linkReferences": {},
    "deployedLinkReferences": {}
}