{
    "_format": "hh-sol-artifact-1",
    "contractName": "MyEthSpace",
    "sourceName": "contracts/MyEthSpace.sol",
    "abi": [
        {
            "inputs": [],
            "stateMutability": "payable",
            "type": "constructor"
        },
        {
            "anonymous": false,
            "inputs": [
                {
                    "indexed": true,
                    "internalType": "address",
                    "name": "from",
                    "type": "address"
                },
                {
                    "indexed": false,
                    "internalType": "uint256",
                    "name": "timestamp",
                    "type": "uint256"
                },
                {
                    "indexed": false,
                    "internalType": "string",
                    "name": "message",
                    "type": "string"
                }
            ],
            "name": "NewMessage",
            "type": "event"
        },
        {
            "inputs": [],
            "name": "getAllMessages",
            "outputs": [
                {
                    "components": [
                        {
                            "internalType": "address",
                            "name": "user",
                            "type": "address"
                        },
                        {
                            "internalType": "string",
                            "name": "message",
                            "type": "string"
                        },
                        {
                            "internalType": "uint256",
                            "name": "timestamp",
                            "type": "uint256"
                        }
                    ],
                    "internalType": "struct MyEthSpace.Message[]",
                    "name": "",
                    "type": "tuple[]"
                }
            ],
            "stateMutability": "view",
            "type": "function"
        },
        {
            "inputs": [],
            "name": "getTotalSocialActions",
            "outputs": [
                {
                    "internalType": "uint256",
                    "name": "totalWaves",
                    "type": "uint256"
                },
                {
                    "internalType": "uint256",
                    "name": "totalThumbs",
                    "type": "uint256"
                },
                {
                    "internalType": "uint256",
                    "name": "totalLikes",
                    "type": "uint256"
                }
            ],
            "stateMutability": "view",
            "type": "function"
        },
        {
            "inputs": [
                {
                    "internalType": "string",
                    "name": "_message",
                    "type": "string"
                }
            ],
            "name": "like",
            "outputs": [],
            "stateMutability": "nonpayable",
            "type": "function"
        },
        {
            "inputs": [
                {
                    "internalType": "string",
                    "name": "_message",
                    "type": "string"
                }
            ],
            "name": "thumbsup",
            "outputs": [],
            "stateMutability": "nonpayable",
            "type": "function"
        },
        {
            "inputs": [
                {
                    "internalType": "string",
                    "name": "_message",
                    "type": "string"
                }
            ],
            "name": "wave",
            "outputs": [],
            "stateMutability": "nonpayable",
            "type": "function"
        }
    ],
    "bytecode": "0x60806040526200004f6040518060400160405280600c81526020017f48656c6c6f20776f726c642100000000000000000000000000000000000000008152506200005560201b620007fe1760201c565b620001e9565b620000f5816040516024016200006c919062000162565b6040516020818303038152906040527f41304fac000000000000000000000000000000000000000000000000000000007bffffffffffffffffffffffffffffffffffffffffffffffffffffffff19166020820180517bffffffffffffffffffffffffffffffffffffffffffffffffffffffff8381831617835250505050620000f860201b60201c565b50565b60008151905060006a636f6e736f6c652e6c6f679050602083016000808483855afa5050505050565b60006200012e8262000186565b6200013a818562000191565b93506200014c818560208601620001a2565b6200015781620001d8565b840191505092915050565b600060208201905081810360008301526200017e818462000121565b905092915050565b600081519050919050565b600082825260208201905092915050565b60005b83811015620001c2578082015181840152602081019050620001a5565b83811115620001d2576000848401525b50505050565b6000601f19601f8301169050919050565b61120c80620001f96000396000f3fe608060405234801561001057600080fd5b50600436106100575760003560e01c806329c4373a1461005c5780632edf21681461007c578063449d46c01461009857806353f5e380146100b457806393ba7b0c146100d2575b600080fd5b6100646100ee565b60405161007393929190610efc565b60405180910390f35b61009660048036038101906100919190610b09565b610141565b005b6100b260048036038101906100ad9190610b09565b6103b8565b005b6100bc610532565b6040516100c99190610dcc565b60405180910390f35b6100ec60048036038101906100e79190610b09565b610683565b005b60008060006101256040518060600160405280602d81526020016111aa602d91396000800154600060010154600060020154610897565b6000800154600060010154600060020154925092509250909192565b6001600060020160008282546101579190611005565b9250508190555061019d6040518060400160405280600c81526020017f257320686173206c696b6564000000000000000000000000000000000000000081525033610939565b600360405180606001604052803373ffffffffffffffffffffffffffffffffffffffff16815260200183815260200142815250908060018154018082558091505060019003906000526020600020906003020160009091909190915060008201518160000160006101000a81548173ffffffffffffffffffffffffffffffffffffffff021916908373ffffffffffffffffffffffffffffffffffffffff160217905550602082015181600101908051906020019061025c9291906109fe565b506040820151816002015550503373ffffffffffffffffffffffffffffffffffffffff167f0ff94fec3112de81726d79117e091c7c9d47da8a38c73e8cec7ee350a61898a642836040516102b1929190610ecc565b60405180910390a26000655af3107a4000905047811115610307576040517f08c379a00000000000000000000000000000000000000000000000000000000081526004016102fe90610e8c565b60405180910390fd5b60003373ffffffffffffffffffffffffffffffffffffffff168260405161032d90610db7565b60006040518083038185875af1925050503d806000811461036a576040519150601f19603f3d011682016040523d82523d6000602084013e61036f565b606091505b50509050806103b3576040517f08c379a00000000000000000000000000000000000000000000000000000000081526004016103aa90610eac565b60405180910390fd5b505050565b60016000800160008282546103cd9190611005565b925050819055506104136040518060400160405280600b81526020017f257320686173207761766500000000000000000000000000000000000000000081525033610939565b600360405180606001604052803373ffffffffffffffffffffffffffffffffffffffff16815260200183815260200142815250908060018154018082558091505060019003906000526020600020906003020160009091909190915060008201518160000160006101000a81548173ffffffffffffffffffffffffffffffffffffffff021916908373ffffffffffffffffffffffffffffffffffffffff16021790555060208201518160010190805190602001906104d29291906109fe565b506040820151816002015550503373ffffffffffffffffffffffffffffffffffffffff167f0ff94fec3112de81726d79117e091c7c9d47da8a38c73e8cec7ee350a61898a64283604051610527929190610ecc565b60405180910390a250565b60606003805480602002602001604051908101604052809291908181526020016000905b8282101561067a57838290600052602060002090600302016040518060600160405290816000820160009054906101000a900473ffffffffffffffffffffffffffffffffffffffff1673ffffffffffffffffffffffffffffffffffffffff1673ffffffffffffffffffffffffffffffffffffffff1681526020016001820180546105df906110d9565b80601f016020809104026020016040519081016040528092919081815260200182805461060b906110d9565b80156106585780601f1061062d57610100808354040283529160200191610658565b820191906000526020600020905b81548152906001019060200180831161063b57829003601f168201915b5050505050815260200160028201548152505081526020019060010190610556565b50505050905090565b6001600060010160008282546106999190611005565b925050819055506106df6040518060400160405280600e81526020017f257320686173207468756d62656400000000000000000000000000000000000081525033610939565b600360405180606001604052803373ffffffffffffffffffffffffffffffffffffffff16815260200183815260200142815250908060018154018082558091505060019003906000526020600020906003020160009091909190915060008201518160000160006101000a81548173ffffffffffffffffffffffffffffffffffffffff021916908373ffffffffffffffffffffffffffffffffffffffff160217905550602082015181600101908051906020019061079e9291906109fe565b506040820151816002015550503373ffffffffffffffffffffffffffffffffffffffff167f0ff94fec3112de81726d79117e091c7c9d47da8a38c73e8cec7ee350a61898a642836040516107f3929190610ecc565b60405180910390a250565b610894816040516024016108129190610dee565b6040516020818303038152906040527f41304fac000000000000000000000000000000000000000000000000000000007bffffffffffffffffffffffffffffffffffffffffffffffffffffffff19166020820180517bffffffffffffffffffffffffffffffffffffffffffffffffffffffff83818316178352505050506109d5565b50565b610933848484846040516024016108b19493929190610e40565b6040516020818303038152906040527f08ee5666000000000000000000000000000000000000000000000000000000007bffffffffffffffffffffffffffffffffffffffffffffffffffffffff19166020820180517bffffffffffffffffffffffffffffffffffffffffffffffffffffffff83818316178352505050506109d5565b50505050565b6109d1828260405160240161094f929190610e10565b6040516020818303038152906040527f319af333000000000000000000000000000000000000000000000000000000007bffffffffffffffffffffffffffffffffffffffffffffffffffffffff19166020820180517bffffffffffffffffffffffffffffffffffffffffffffffffffffffff83818316178352505050506109d5565b5050565b60008151905060006a636f6e736f6c652e6c6f679050602083016000808483855afa5050505050565b828054610a0a906110d9565b90600052602060002090601f016020900481019282610a2c5760008555610a73565b82601f10610a4557805160ff1916838001178555610a73565b82800160010185558215610a73579182015b82811115610a72578251825591602001919060010190610a57565b5b509050610a809190610a84565b5090565b5b80821115610a9d576000816000905550600101610a85565b5090565b6000610ab4610aaf84610f64565b610f33565b905082815260208101848484011115610acc57600080fd5b610ad7848285611097565b509392505050565b600082601f830112610af057600080fd5b8135610b00848260208601610aa1565b91505092915050565b600060208284031215610b1b57600080fd5b600082013567ffffffffffffffff811115610b3557600080fd5b610b4184828501610adf565b91505092915050565b6000610b568383610d49565b905092915050565b610b678161105b565b82525050565b610b768161105b565b82525050565b6000610b8782610fa4565b610b918185610fc7565b935083602082028501610ba385610f94565b8060005b85811015610bdf5784840389528151610bc08582610b4a565b9450610bcb83610fba565b925060208a01995050600181019050610ba7565b50829750879550505050505092915050565b6000610bfc82610faf565b610c068185610fe3565b9350610c168185602086016110a6565b610c1f81611198565b840191505092915050565b6000610c3582610faf565b610c3f8185610ff4565b9350610c4f8185602086016110a6565b610c5881611198565b840191505092915050565b6000610c70603483610ff4565b91507f547279696e6720746f207769746864726177206d6f7265206d6f6e657920746860008301527f616e2074686520636f6e7472616374206861732e0000000000000000000000006020830152604082019050919050565b6000610cd6602783610ff4565b91507f4661696c656420746f207769746864726177206d6f6e65792066726f6d20636f60008301527f6e74726163742e000000000000000000000000000000000000000000000000006020830152604082019050919050565b6000610d3c600083610fd8565b9150600082019050919050565b6000606083016000830151610d616000860182610b5e565b5060208301518482036020860152610d798282610bf1565b9150506040830151610d8e6040860182610d99565b508091505092915050565b610da28161108d565b82525050565b610db18161108d565b82525050565b6000610dc282610d2f565b9150819050919050565b60006020820190508181036000830152610de68184610b7c565b905092915050565b60006020820190508181036000830152610e088184610c2a565b905092915050565b60006040820190508181036000830152610e2a8185610c2a565b9050610e396020830184610b6d565b9392505050565b60006080820190508181036000830152610e5a8187610c2a565b9050610e696020830186610da8565b610e766040830185610da8565b610e836060830184610da8565b95945050505050565b60006020820190508181036000830152610ea581610c63565b9050919050565b60006020820190508181036000830152610ec581610cc9565b9050919050565b6000604082019050610ee16000830185610da8565b8181036020830152610ef38184610c2a565b90509392505050565b6000606082019050610f116000830186610da8565b610f1e6020830185610da8565b610f2b6040830184610da8565b949350505050565b6000604051905081810181811067ffffffffffffffff82111715610f5a57610f59611169565b5b8060405250919050565b600067ffffffffffffffff821115610f7f57610f7e611169565b5b601f19601f8301169050602081019050919050565b6000819050602082019050919050565b600081519050919050565b600081519050919050565b6000602082019050919050565b600082825260208201905092915050565b600081905092915050565b600082825260208201905092915050565b600082825260208201905092915050565b60006110108261108d565b915061101b8361108d565b9250827fffffffffffffffffffffffffffffffffffffffffffffffffffffffffffffffff038211156110505761104f61110b565b5b828201905092915050565b60006110668261106d565b9050919050565b600073ffffffffffffffffffffffffffffffffffffffff82169050919050565b6000819050919050565b82818337600083830152505050565b60005b838110156110c45780820151818401526020810190506110a9565b838111156110d3576000848401525b50505050565b600060028204905060018216806110f157607f821691505b602082108114156111055761110461113a565b5b50919050565b7f4e487b7100000000000000000000000000000000000000000000000000000000600052601160045260246000fd5b7f4e487b7100000000000000000000000000000000000000000000000000000000600052602260045260246000fd5b7f4e487b7100000000000000000000000000000000000000000000000000000000600052604160045260246000fd5b6000601f19601f830116905091905056fe576520686176652025642077617665732c202564207468756d627320757020616e64202564206c696b65732021a2646970667358221220547f4fea5b1f182478df7cf79a6e7b7c6891f03ec32965b0b3bf1daf534a470464736f6c63430008000033",
    "linkReferences": {},
    "deployedLinkReferences": {}
}